:020000040800F2
:10000000C80400200901000833130008AD120008DD
:1000100031130008610100085F18000800000000AB
:10002000000000000000000000000000D9130008DC
:10003000630100080000000055130008DB130008EE
:100040002301000823010008230100082301000800
:1000500023010008230100082301000823010008F0
:1000600023010008230100082301000823010008E0
:1000700023010008230100082301000823010008D0
:1000800023010008230100082301000823010008C0
:1000900023010008230100082301000823010008B0
:1000A00000000000230100082301000823010008CC
:1000B0002301000823010008230100082301000890
:1000C0002301000823010008230100082301000880
:1000D0002301000823010008230100082301000870
:1000E000230100082301000823010008A9140008C7
:1000F000B5140008DFF80CD000F020F800480047E5
:1001000081180008C80400200648804706480047B8
:10011000FEE7FEE7FEE7FEE7FEE7FEE7FEE7FEE7B7
:10012000FEE7FEE759140008F5000008421C10F82D
:10013000011B0029FBD1801A70470000064C074DB7
:1001400006E0E06840F0010394E8070098471034A7
:10015000AC42F6D3FFF7D2FFBC1A0008DC1A000845
:10016000FEE7704731B500F0D5F8044600F0D2F84C
:100170000099001B8842F9D338BD00002DE9F84FE3
:10018000DFF864B100234FF0010C4FF0030A4FF089
:100190000F090BF1040EA0E00CFA03F6324072D006
:1001A0004C68022C01D0122C0ED1DC0800EB840824
:1001B000D8F820405D07EF0E09FA07F5AC430D694A
:1001C000BD402543C8F8205007685D0091F80480C1
:1001D0000AFA05F408F00308A74308FA05F848EA04
:1001E0000708C0F800804F68012F05D0022F03D008
:1001F000112F01D0122F11D18768D1F80C80A7439D
:1002000008FA05F848EA0708C0F808804768B743C5
:100210000E79C6F300169E403E434660C668A6436C
:100220008C68AC403443C4604C68E40054D52F4C17
:10023000256845F001052560246823F0030504F0D6
:10024000010400942A4C2544AF689C07240F09FA46
:1002500004F6B743274EB04201D1002615E0264EE2
:10026000B04201D1012610E0244EB04201D1022655
:100270000BE0234EB04201D1032606E0214EB042EE
:1002800002D1042601E027E00526A6403E43AE60E9
:10029000DBF800405D464E689443F60300D51443F6
:1002A0002C60DEF8004075464E689443B60300D5D6
:1002B00014432C600C4D08352C684E689443F602AC
:1002C00000D514432C60084D0C352C684E689443BF
:1002D000B60200D514432C605B1C0A6832FA03F4A2
:1002E0007FF45AAFBDE8F88F000401402038024087
:1002F00000000140000002400004024000080240EB
:10030000000C0240001002400AB1816170470904EC
:10031000FBE7000001480068704700000C00002067
:1003200002480168491C0160704700000C00002071
:1003300010B5032000F090F8002000F005F800F060
:1003400017F8002010BD000010B5044607484FF410
:100350007A710068B0FBF1F000F0ABFD002221469D
:10036000501E00F059F8002010BD000010000020C1
:10037000224808B5016841F000410160016801F0C0
:1003800000410091011F0A6842F001020A600968F9
:1003900001F001010091016841F0805101600068A5
:1003A00000F080500090032000F056F80022114623
:1003B0006FF00B0000F030F8002211466FF00A00D9
:1003C00000F02AF8002211466FF0090000F024F82E
:1003D00000221146501F00F01FF800221146101F86
:1003E00000F01AF800221146901E00F015F80022C5
:1003F000BDE808401146501E00F00EB824380240F7
:1004000000F01F02012191404009800000F1E0202E
:10041000C0F8001170470000F0B40E4B1B680C468A
:10042000C3F30223C3F10705042D00D90425191DC8
:10043000072901D2002300E0DB1E012606FA05F1A0
:10044000491E214099409E40761E16403143F0BC23
:1004500000F070BF0CED00E0064900F007020868EC
:100460004FF6FF03184040EA0220034A1043086099
:10047000704700000CED00E00000FA052DE9F047A0
:10048000DFF8BC8105460E46D8F8000000F00100F8
:10049000B04214D2012E05D1D8F8001041F0040169
:1004A000C8F80010D8F8001021F001013143C8F855
:1004B0000010D8F8000000F00100B04271D1287897
:1004C000604C800705D52068A96820F0F00008433B
:1004D00020602878C00771D05A4A5A4B69680120B9
:1004E000083A2C33022910D003292ED001292FD00D
:1004F0005FEA402797FAA7FCBCFA8CFC4CF0200C72
:100500005FEA5C1C04D0126803E04FF40037F1E7A7
:100510001A6897FAA7F3B3FA83F303F01F0398401E
:10052000024262D0206820F0030008432060FFF7F9
:10053000F1FE6968074641F28830022910D003298C
:100540001CD00129814626D034E04FF00077D1E756
:100550000227CFE7FFF7DEFEC11B494501D926E0A0
:1005600081462068C0F381000228F3D126E000BF55
:10057000FFF7D0FEC11B494501D918E0814620682C
:10058000C0F381000328F3D118E000BFFFF7C2FEDB
:10059000C11B49450BD82068C0F381000128F5D163
:1005A0000CE022E0FFF7B6FEC11B494502D903204B
:1005B000BDE8F087206810F00C0FF3D1D8F80010D8
:1005C000404601F00101B14211D9012E03D1016869
:1005D00041F004010160016821F001013143016033
:1005E000006800F00100B04201D00120E0E7287867
:1005F000400705D52068E96820F4E06008432060E2
:100600002878000706D52068296920F4605040EA60
:10061000C100206000F052F82168F02292FAA2F2A4
:1006200001F0F001B2FA82F2D140074A515CC840B1
:10063000064908600020FFF787FE0020B8E70000A9
:10064000003C024008380240A11A000810000020B7
:100650000148006870470000100000200848094960
:10066000006809684FF4E06292FAA2F201F4E061D6
:10067000B2FA82F2D140044A515CC840704700008F
:100680001000002008380240B11A00080848094943
:10069000006809684FF4605292FAA2F201F46051C6
:1006A000B2FA82F2D140044A515CC840704700005F
:1006B0001000002008380240B11A00081E4A1168D4
:1006C00001F00C00042813D0082813D00C2813D0F4
:1006D000101F006800F460414FF4604090FAA0F0F1
:1006E000B0FA80F0C1404FF40040491C8840704788
:1006F00012487047124870474FF4701393FAA3F3EF
:1007000001F47010B3FA83F3D8400E4B01F44001AA
:100710001268185C4FF4400393FAA3F3B3FA83F31F
:10072000D940491CD20301D5054A00E0034A504391
:10073000B0FBF1F070470000083802400024F400DC
:1007400000366E01981A00082DE9F84F0746007828
:10075000FB4EFC4DC0074FF0010428D0F84808308C
:1007600001684FF40038C1F38101022907D0016804
:10077000C1F3810103291BD10068C00318D598FA81
:10078000A8F0B0FA80F040F02000400901D03068B5
:1007900000E0286898FAA8F1B1FA81F101F01F0190
:1007A00004FA01F108425CD0786800287BD058E058
:1007B000786801280AD008B1052811D0306820F4E3
:1007C00080303060306820F4802002E0306840F4EF
:1007D00080303060786828B3FFF79CFD81460BE0DD
:1007E000306840F480203060F0E700BFFFF792FDF2
:1007F000A0EB0900642872D898FAA8F0B0FA80F04B
:1008000040F02000400901D0306800E0286898FAE4
:10081000A8F1B1FA81F101F01F0104FA01F10842D7
:10082000E4D01EE0FFF776FD814605E0FFF772FD9C
:10083000A0EB09006428DED898FAA8F0B0FA80F09E
:1008400040F02000400901D0306800E0286898FAA4
:10085000A8F1B1FA81F101F01F0104FA01F1084297
:10086000E4D13878DFF8E08280074FF0000B4FF0DA
:1008700002095FD5B24808300168C1F3810101293E
:1008800007D00168C1F3810103291CD10068C003AE
:1008900019D499FAA9F0B0FA80F040F0200040098C
:1008A00002D0306801E086E0286899FAA9F1B1FA2F
:1008B00081F101F01F0104FA01F108422BD0F86820
:1008C000012878D127E0F868A8B394FAA4F0B0FA28
:1008D00080F048F82040FFF71DFD824606E066E103
:1008E000FFF718FDA0EB0A00022884D899FAA9F1B5
:1008F000B1FA81F141F02001490901D0316800E0ED
:10090000296899FAA9F0B0FA80F000F01F0004FA03
:1009100000F00142E4D08A48001D01684FF4F8530A
:1009200093FAA3F33A69B3FA83F321F4F8519A40A6
:100930001143016025E0FFE794FAA4F1B1FA81F1D7
:1009400048F821B0FFF7E6FC824605E0FFF7E2FC3D
:10095000A0EB0A000228C8D899FAA9F0B0FA80F0F2
:1009600040F02000400901D0306800E0286899FA82
:10097000A9F1B1FA81F101F01F0104FA01F1084275
:10098000E4D138784FF4007AC0067CD56C48083042
:10099000006810F00C0F0FD0B9694FF48070002977
:1009A00072D090FAA0F0B0FA80F048F82040FFF73B
:1009B000B1FC00907EE087E09AFAAAF0B0FA80F0ED
:1009C00040F02000400901D0306800E028689AFA21
:1009D000AAF1B1FA81F101F01F0104FA01F1084214
:1009E00002D0B86900286FD05548396A001D0068E8
:1009F00000F4604081421AD9084600F0ADFC00289E
:100A000062D14F48001D01683A6A21F460411143E8
:100A1000016001684FF07F4393FAA3F3FA69B3FAD8
:100A200083F321F07F419A401143016018E044486C
:100A3000001D026822F460420A43026001684FF020
:100A40007F4393FAA3F3FA69B3FA83F321F07F416A
:100A50009A4011430160386A00F07EFC0028CFD133
:100A60004FF4604191FAA1F1386AB1FA81F1C840BE
:100A70004FF40041401C8140314808300068F022AA
:100A800000F0F00001E070E040E092FAA2F2B2FA69
:100A900082F2D0402D4A105CC1402D4801600020F8
:100AA000FFF752FC61E000BFFFF734FC0099401AE9
:100AB00002287CD89AFAAAF0B0FA80F040F0200020
:100AC000400902D0306801E0BCE128689AFAAAF136
:100AD000B1FA81F101F01F0104FA01F10842E3D0FB
:100AE0001748001D01683A6A21F460411143016012
:100AF00001684FF07F4393FAA3F3FA69B3FA83F3E3
:100B000021F07F419A40114301602EE090FAA0F05D
:100B1000B0FA80F048F820B0FFF7FCFB009005E049
:100B2000FFF7F8FB0099401A0228C2D89AFAAAF0F7
:100B3000B0FA80F040F0200040090BD030680AE0A5
:100B4000003802403438024000004742A11A000831
:100B50001000002028689AFAAAF1B1FA81F101F098
:100B60001F0104FA01F10842DAD13878000753D5A1
:100B7000786948B394FAA4F0B0FA80F008EB8000EA
:100B8000C0F88046FFF7C6FB009005E0FFF7C2FB08
:100B90000099401A02288CD899FAA9F0B0FA80F08E
:100BA00040F04000B4EB501F02D1306801E08EE00D
:100BB000286899FAA9F1B1FA81F101F01F0104FA4C
:100BC00001F21042E2D027E094FAA4F1B1FA81F1E7
:100BD00008EB8101C1F880B6FFF79CFB009005E0AF
:100BE000FFF798FB0099401A022870D899FAA9F0EB
:100BF000B0FA80F040F04000B4EB501F01D13068F3
:100C000000E0286899FAA9F1B1FA81F101F01F0119
:100C100004FA01F21042E3D1387840077BD59B48B3
:100C20004FF000090068C0000AD49848016841F0FC
:100C30008051016000684FF0010900F08050009081
:100C400093480168C90511D4016841F480710160BD
:100C5000FFF760FB009005E0FFF75CFB0099401A8E
:100C6000642834D88A480068C005F5D5B8680128DA
:100C70000AD008B1052811D0286820F480702860B7
:100C8000286820F4806002E0286840F480702860C2
:100C9000B86848B3FFF73EFB00900DE0286840F4C9
:100CA00080602860F0E700BFFFF734FB0099411A2D
:100CB00041F2883081420AD89AFAAAF0B0FA80F05C
:100CC00040F04000B4EB501F02D1306801E095E0E5
:100CD00028689AFAAAF1B1FA81F101F01F0104FA29
:100CE00001F21042E0D022E0FFF714FB009007E091
:100CF000FFF710FB0099411A41F2883081427DD8FC
:100D00009AFAAAF0B0FA80F040F04000B4EB501F1D
:100D100002D1306801E012E028689AFAAAF1B1FA2B
:100D200081F101F01F0104FA01F21042E0D1B9F1A2
:100D3000000F04D05548016821F080510160786AA5
:100D4000E8B3DFF84891A9F11C09D9F80010C1F304
:100D50008101032976D002284FF080714FF0007A8C
:100D600058460BD091FAA1F1B1FA81F148F821006F
:100D7000FFF7D0FAB046074656466DE04FF0807157
:100D800091FAA1F1B1FA81F18A0042495050FFF77E
:100D9000C1FAB3468046564606E000BFFFF7BAFAEE
:100DA000A0EB0800022854D896FAA6F0B0FA80F01A
:100DB00040F02000400903D0DBF8000001E061E0D2
:100DC000286896FAA6F1B1FA81F101F01F0104FA40
:100DD00001F10842E2D1D7E90A103A6BD9F80030A4
:100DE000014323F47D031A431143C9F800104FF067
:100DF000807090FAA0F0B0FA80F000E029E0810065
:100E000024480C50FFF786FA074604E0FFF782FA01
:100E1000C01B02281DD896FAA6F0B0FA80F040F068
:100E20002000400902D0DBF8000000E0286896FAB4
:100E3000A6F1B1FA81F101F01F0104FA01F10842B3
:100E4000E4D01FE020E000BFFFF764FAC01B0228D7
:100E500002D90320BDE8F88F96FAA6F0B0FA80F028
:100E600040F02000400902D0D8F8000000E02868D7
:100E700096FAA6F1B1FA81F101F01F0104FA01F12D
:100E80000842E1D10020E5E70120E3E724380240F1
:100E900000700040000047424FF0E021042808693C
:100EA00003D020F004000861704740F00400FAE726
:100EB000704710B5401EB0F1807F01D3012010BDF6
:100EC0004FF0E02460610F21601700F033FA00203A
:100ED000A06107202061002010BD10B5FFF7E8FFDA
:100EE00010BD30B590F83420012A20D0012280F8BE
:100EF0003420022380F8353003685C6824F07004E5
:100F00005C6003685C680D682C435C6003689C68E7
:100F100024F080049C6003689C6849680C439C60D2
:100F200080F83520002180F83410084630BD0220BA
:100F300030BD10B5040003D094F8350010B107E0BF
:100F4000012010BD002084F83400204600F00CF889
:100F5000022084F83500211D206800F0B1FA01203C
:100F600084F83500002010BD08B5154A0168154801
:100F700091420ED1016841F0100101600068002229
:100F800000F01000009011462B20FFF745FA2B20AF
:100F900010E00D4A914211D1016841F02001016039
:100FA0000068002200F02000009011462C20FFF77E
:100FB00033FA2C20BDE80840FFF722BA08BD000034
:100FC0000010004024380240001400400168CA6844
:100FD00042F00102CA600068016841F0010101604D
:100FE00000207047704770B50446006801694FF0F3
:100FF0000005C943890715D4C168C943890711D4BD
:10100000E91E016101202075206880698007204663
:1010100002D0FFF7E7FF04E000F078F8204600F088
:1010200076F8257520680169C943490717D4C16856
:10103000C943490713D46FF00401016102202075F0
:101040002068806910F4407F204602D0FFF7CAFF75
:1010500004E000F05BF8204600F059F825752068A0
:101060000169C943090716D4C168C943090712D4E5
:101070006FF008010161042020752068C0698007B5
:10108000204602D0FFF7AEFF04E000F03FF8204614
:1010900000F03DF8257520680169C943C90617D4D9
:1010A000C168C943C90613D46FF01001016108205B
:1010B00020752068C06910F4407F204602D0FFF7F9
:1010C00091FF04E000F022F8204600F020F825759A
:1010D00020680169C943C90708D1C168C943C90764
:1010E00004D1891E0161204600F012F820680169D0
:1010F000C943490609D4C168C943490605D46FF0FC
:1011000040010161204600F015F870BD704770473E
:101110000068054B0121054A984200D11170044B2B
:10112000984200D15170704700100040000000202C
:1011300000140040704770B5040004D094F83900E2
:10114000002510B106E0012070BD84F8385020461B
:1011500000F020F8022084F839002068C16821F4EA
:101160000051C160204600F0E1F92068016921F4D6
:10117000904101612068416921F02A0141612068A4
:10118000C16841F40051C160E563012084F8390071
:10119000002070BD00B500680E4987B0884216D1A6
:1011A0000D48016841F4003101600068694600F4AF
:1011B000003005900C200090022001900120029048
:1011C00003200390072004900448FEF7D7FF07B0E0
:1011D00000BD0000004400402438024000000240EE
:1011E0002DE9F047044690F8390099460D4601284C
:1011F00001D0222858D12DB322B394F83800012809
:1012000052D0012684F838600027E76394F839004B
:1012100022281AD05FF0120084F83900A284E284F8
:101220004FF48058E08C4B46401EE084A0684FF09D
:10123000000240454FF08001204613D100F0C6FA6D
:1012400008BB04E00120BDE8F0873220E4E72888ED
:101250002168C0F308004860206908B16D1C08E0EF
:10126000AD1C06E000F0B2FA68B9216815F8010B70
:101270004860E08C0028D5D14B4600224021204612
:1012800000F0A4FA08B10320DDE794F83900322811
:1012900006D084F8396000BF84F838700020D2E7A7
:1012A000222084F83900F7E70220CCE7FEE70000AF
:1012B0002DE9F0411B4886B0016841F00101016051
:1012C000016801F001010591016841F0020101602E
:1012D0000068154F00F002000590002210213846EA
:1012E000FFF712F8DFF844804FF4406600223146E1
:1012F0004046FFF709F81020009001250024CDE9B1
:101300000154694638460394FEF738FF0096CDE94C
:101310000154694640460394FEF730FF06B0BDE82D
:10132000F08100001C38024000000240000402402E
:10133000FEE770470907090E002806DA00F00F00E3
:1013400000F1E02080F8141D704700F1E02080F8E3
:10135000001470477047000038B51C490023096825
:101360001B4A11F0F00F23D118491C310C68E5001D
:10137000184C03D5216801F4C0540EE00D6845F007
:1013800080550D600D6805F08055009524680D6846
:1013900004F4C05425F080550D60B4F5C05F07D14A
:1013A000B0F5404F04D11068012340F004001060F4
:1013B000106820F0010018431060106800F0010070
:1013C000984201D0012038BD002038BD08380240C5
:1013D000003C024000700040704710B5FEF7A0FFCF
:1013E000BDE81040FFF779BD1A4810B5016892B00A
:1013F00021F4C05141F400610160102000900120EF
:101400000024CDE906044FF42040CDE908046846E5
:10141000FFF79AF900B1FEE70F20CDE90D040F9414
:10142000109400210DA81194FFF728F800B1FEE7F1
:10143000FFF70EF94FF47A71B0FBF1F0FFF739FDC9
:101440000420FFF729FD00221146501EFEF7E4FF9D
:1014500012B010BD007000400F48016841F4807167
:1014600001600D4908310A680C4B1A400A60026895
:101470000B4B1A400260026822F480220260086866
:1014800020F47D0008600020091D086005494FF028
:101490000060086070470000003802400CC0FF8800
:1014A000FEFFFEEE08ED00E00148FFF79CBD0000E6
:1014B000140000200148FFF796BD00004C000020FA
:1014C00070B502684FF08046134B144CB04203D005
:1014D000984201D0A04205D122F070054A682A4303
:1014E000B0420CD098420AD0A04208D00C4B98428F
:1014F00005D00C4B984202D00B4B984203D122F4FA
:101500004073CA681A4302608A68C26209688162CD
:101510000121416170BD000000040040000800404E
:1015200000080140000C0140001001402DE9F0418D
:10153000044600680169E26821F4405111430161E9
:101540002169A068E2690843616911430843216881
:10155000CA6849F20C639A430243CA602068416931
:10156000A26921F4407111434161E1696425B1F53B
:10157000004F954821684FF032083DD081427AD122
:10158000FFF784F800EBC00101EB001061688900EF
:10159000B0FBF1F6FFF77AF800EBC00101EB0010A9
:1015A00061688900B0FBF1F0B0FBF5F06FF0180155
:1015B000484306EB800108EB0110B0FBF5F000F0AA
:1015C000F006FFF763F800EBC00101EB0010616863
:1015D0008900B0FBF1F0B0FBF5F006EB0016FFF769
:1015E00055F800EBC00101EB001061688900B0FB09
:1015F000F1F7FFF74BF8D0E081423DD1FFF746F815
:1016000000EBC00101EB001061684900B0FBF1F094
:10161000B0FBF5F00601FFF739F800EBC00101EB74
:10162000001061684900B0FBF1F7FFF72FF800EBFD
:10163000C00101EB001061684900B0FBF1F0B0FBA4
:10164000F5F06FF01801484307EB800108EBC1008B
:10165000B0FBF5F000F0F80006EB4006FFF716F8D7
:1016600000EBC00101EB001061684900B0FBF1F72D
:10167000FFF70CF83CE055E0FEF7F0FF00EBC0018F
:1016800001EB001061684900B0FBF1F0B0FBF5F030
:101690000601FEF7E3FF00EBC00101EB00106168FB
:1016A0004900B0FBF1F7FEF7D9FF00EBC00101EBF9
:1016B000001061684900B0FBF1F0B0FBF5F06FF08D
:1016C0001801484307EB800108EBC100B0FBF5F0BF
:1016D00000F0F80006EB4006FEF7C0FF00EBC0018B
:1016E00001EB001061684900B0FBF1F7FEF7B6FFAF
:1016F00000EBC00101EB001061684900B0FBF1F0A4
:10170000B0FBF5F06FF01801484307EB800108EBE0
:10171000C100B0FBF5F000F007002168304488609C
:10172000BDE8F081FEF79AFF00EBC00101EB00106D
:1017300061688900B0FBF1F6FEF790FF00EBC00195
:1017400001EB001061688900B0FBF1F0B0FBF5F02F
:101750006FF01801484306EB800108EB0110B0FB65
:10176000F5F000F0F006FEF779FF00EBC00101EBA9
:10177000001061688900B0FBF1F0B0FBF5F006EBFA
:101780000016FEF76BFF00EBC00101EB0010616873
:101790008900B0FBF1F7FEF761FF00EBC00101EB40
:1017A000001061688900B0FBF1F0B0FBF5F06FF05C
:1017B0001801484307EB800108EB0110B0FBF5F07E
:1017C00000F00F00A9E70000003801402DE9F047C4
:1017D0001D4690460E460446FEF79CFD07465FEA0E
:1017E00008004FF000094FF0010808D030E0681CF5
:1017F00005D095B1FEF78EFDC01BA8420DD820681C
:10180000006836EA0000F2D127E0681C20D025B13C
:10181000FEF780FDC01BA8421AD92068C16821F0DC
:101820008001C1602068C16821F02001C16020688A
:10183000C16821F48071C1602068416921F0010113
:10184000416184F8398084F838900320BDE8F0873E
:101850002068006836EA0000D7D00020F6E7FEE7EF
:1018600002E008C8121F08C1002AFAD17047704769
:10187000002001E001C1121F002AFBD170470000C7
:101880001CB5FEF755FDFFF7AFFDFFF711FD4C4806
:101890004A490024C0E900144FF6FF01C0E90241A3
:1018A000FFF747FB00B1FEE7009469464448019406
:1018B000FFF717FB00B1FEE7414842493830C0E965
:1018C00000144FF6FF71C0E90241FFF732FB00B18F
:1018D000FEE73B480094694638300194FFF701FB6E
:1018E00000B1FEE736483849703001604FF41651B8
:1018F000C0E901140C21C460C0E904418461C461E1
:10190000FFF719FC00B1FEE72D48FFF75FFB2C48FD
:101910003830FFF75BFB2DA000F070F841F2883003
:10192000FEF720FC2B4E2C4D4FF47A782878F8B136
:101930000122970239463046FEF7E6FC0120FEF709
:1019400011FC002239463046FEF7DEFC2C70686838
:10195000401CB0FBF8F2686008FB120040B91FA001
:1019600000F04CF8686800F057F819A000F046F84D
:1019700068780028DAD00122D70239463046FEF7CF
:10198000C3FC0120FEF7EEFB002239463046FEF78D
:10199000BBFC6C70A868401CB0FBF8F2A86008FBA8
:1019A00012000028C2D111A000F028F8A86800F0A9
:1019B00033F807A000F022F8B8E70000001000405C
:1019C000140000200014004000440040496E697477
:1019D0000D0A000000040240000000203173742052
:1019E00067656E657261746F723A2000327374209D
:1019F00067656E657261746F723A200010B50446B7
:101A0000FEF794FB214682B2BDE8104064230148F2
:101A1000FFF7E6BB8400002070B51AA388B00ECB98
:101A200003AC6D4684E80E000021009101910A226A
:101A3000CDF80810B0FBF2F302FB1303B0FBF2F099
:101A40006B54491CC9B20028F4D10A2911D8491E87
:101A50004CB203AE0BE0285D64230122305C8DF8AC
:101A6000180006A90A48FFF7BBFB641E64B2002CED
:101A7000F1DA6423012207A10548FFF7B1FB08B0A2
:101A800070BD00003031323334353637383900001C
:101A90008400002020000000030406080C10182019
:101AA00030000000000000000001020304060708E7
:101AB000090000000001020304000000DC1A000815
:101AC000000000201400000060180008F01A000850
:101AD00014000020B404000070180008000000008A
:101AE00000000000000000000000000068FF1F0070
:04000005080000F5FA
:00000001FF
